:02000000B32823
:10000600831203136C088600071487140330FD005F
:10001600FD0B0B2887100630FC003030FD00FD0B71
:0A0026001228FC0B1228000008004D
:0E003000831203133D088A003C08820008007A
:10003E00831203136C088600071087140330FD002B
:10004E00FD0B272887100630FC003030FD00FD0B1D
:0A005E002E28FC0B2E2800000800DD
:1000680018208A110A128000840ABC0A0319BD0AE2
:08007800F003031D3428080009
:10008000831203136B08F2007208F000F20A700882
:100090008400000803194D2844286B087202F00000
:0C00A0000130F002F101031CF103080024
:1000AC00343083120313FC00F130FD00FD0B5C288F
:1000BC00FC0B5C28000000003830EC001F200C30DA
:1000CC00EC001F200630EC001F200130EC001F203C
:1000DC000630FC003030FD00FD0B7228FC0B722842
:0400EC000000080008
:1000F000013083120313EC001F200630FC00303067
:0E010000FD00FD0B8128FC0B8128000008008B
:10010E00831203136B0884000008031995286B08EB
:0E011E0084000008EC000320EB0A872808008C
:10012C0083120313F801F9011030FC00710DF80D66
:10013C00F90D7408F8027508031C750FF902031801
:10014C00AE287408F80775080318750FF907031023
:0A015C00F00DF10DFC0B9C280800CB
:100166009221503083120313BC000130BD003E3093
:1001760084002630F000342083168601870183121E
:1001860086018701562078200430FB000C30FC00E5
:100196003330FD00FD0BCD28FC0BCD28FB0BCD2805
:1001A600000000008130EC001F202030EB0087208B
:1001B600C130EC001F202D30EB0087201530FB00EE
:1001C6004B30FC00BE30FD00FD0BE728FC0BE7289A
:1001D600FB0BE72800007820E401E5013E30EB0048
:1001E600402071086502031DFA287008640203188E
:1001F6004929E601E70100306702031D0429103092
:10020600660203182E296608A03EEA0066086407FF
:10021600E80065080318013E6707E9003E30EB0079
:1002260040207008F4007108F5006808F0006908BD
:10023600F10096207808F0007908F10070083E3E3B
:1002460084000008F0006A08840070088000E60A4E
:100256000319E70AFE288316B00180308312EC00EA
:100266001F20A030EB0087200330FB008A30FC0003
:100276005530FD00FD0B3D29FC0B3D29FB0B3D29AF
:1002860000000000E40A0319E50AF128EF284A29CC
:10032400203084001C3083120313F0007630BC00AC
:080334000130BD003420080077
:1002A00020344D34553443343A3450344934433493
:1002B00031343634463438343734373441342034EA
:1002C000503472346F346A346534633474343A347D
:1002D00020344C3463346434203453346334723403
:0C02E000653465346E3420342034003462
:1002EC0020342034483465346C346C346F3420340E
:0A02FC004834613476346534003470
:100306006134203467347234653461347434203493
:0E03160064346134793420343C3433340034A0
:02400E004A2F37
:00000001FF
